:100000000C9434000C9451000C9451000C94510049
:100010000C9451000C9451000C9451000C9451001C
:100020000C9451000C9451000C9451000C9451000C
:100030000C9451000C9451000C9451000C945100FC
:100040000C9451000C9451000C9451000C945100EC
:100050000C9451000C9451000C9451000C945100DC
:100060000C9451000C94510011241FBECFEFD8E026
:10007000DEBFCDBF12E0A0E0B1E0EAE0F0E102C0F7
:1000800005900D92AA32B107D9F712E0AAE2B2E0C8
:1000900001C01D92A033B107E1F70E94F9040C944E
:1000A00003080C9400009091C00095FFFCCF809352
:1000B000C60008958CE58093B8001092B9000895A9
:1000C00084EA8093BC008091BC0087FFFCCF089538
:1000D0008093BB0084E88093BC008091BC0087FFC4
:1000E000FCCF089584E88093BC008091BC0087FF1A
:1000F000FCCF8091BB00089584E98093BC0080917F
:10010000BC0084FFFCCF08950E94600086ED0E9431
:10011000680080E20E9468008FE00E9468000E94F0
:100120007C0008951F93CF93DF930F92CDB7DEB776
:100130000E94600086ED0E9468008CE20E946800C8
:100140000E94600087ED0E9468000E947200182FD4
:100150000E947C000E94600086ED0E9468008DE293
:100160000E9468000E94600087ED0E9468000E9463
:10017000720089830E947C008981682F772767FD40
:100180007095762F6627812F992787FD9095682B8C
:10019000792B882777FD8095982F0E949E0220E07A
:1001A00030E04CE051E40E949D01462F572F682F0C
:1001B000792FCB01BA010E941503CB010F90DF917B
:1001C000CF911F9108951F93CF93DF930F92CDB7D7
:1001D000DEB70E94600086ED0E9468008AE20E94FD
:1001E00068000E94600087ED0E9468000E94720013
:1001F000182F0E947C000E94600086ED0E9468001B
:100200008BE20E9468000E94600087ED0E946800F7
:100210000E94720089830E947C008981682F772761
:1002200067FD7095762F6627812F992787FD90951A
:10023000682B792B882777FD8095982F0E949E0246
:1002400020E030E04CE051E40E949D01462F572F02
:10025000682F792FCB01BA010E941503CB010F90B3
:10026000DF91CF911F9108951F93CF93DF930F924A
:10027000CDB7DEB70E94600086ED0E94680088E27C
:100280000E9468000E94600087ED0E9468000E9442
:100290007200182F0E947C000E94600086ED0E9470
:1002A000680089E20E9468000E94600087ED0E9459
:1002B00068000E94720089830E947C008981682FF7
:1002C000772767FD7095762F6627812F992787FD01
:1002D0009095682B792B882777FD8095982F0E9421
:1002E0009E0220E030E04CE051E40E949D01462F48
:1002F000572F682F792FCB01BA010E941503CB012C
:100300000F90DF91CF911F9108958093C400909337
:10031000C50086E08093C20088E18093C10084E13B
:1003200091E090932D0280932C0208958091C0005B
:1003300087FFFCCF8091C6000895A0E2B0E0E3EA19
:10034000F1E00C943B05DC01CB018D839E83AF83F0
:10035000B88729833A834B835C83CE010596BE011F
:10036000675E7F4F0E949004CE010196BE016F5ED2
:100370007F4F0E949004998D923078F08989823065
:10038000C0F0943019F4823041F4CAC0843019F4BA
:10039000923079F4C5C0923051F481E02A8D9A8967
:1003A000291709F480E08A8FCE014996BBC08230BC
:1003B00051F481E02A8D9A89291709F480E08A8B0B
:1003C000CE014196AFC04D8C5E8C6F8C78A00D89AC
:1003D0001E892F89388DE0E2F0E040E050E0BA015C
:1003E000882499245401CC24DD247601C201817033
:1003F00090700097D1F0C00ED11EE21EF31EDB01FB
:10040000CA01880D991DAA1DBB1D41E050E060E0A6
:1004100070E0C016D106E206F30618F040E050E0A6
:10042000BA01480F591F6A1F7B1F880C991CAA1C10
:10043000BB1C37FF08C081E090E0A0E0B0E0882A54
:10044000992AAA2ABB2A000F111F221F331F769454
:10045000679457944794319749F68B8D9C8D2B89DF
:100460003C89820F931F02969C878B8781E02A8D9F
:100470009A89291709F480E08A872B853C8517C063
:10048000CA0181709070009761F0F694E794D79458
:10049000C79480E090E0A0E0B0E8C82AD92AEA2A10
:1004A000FB2A76956795579547952F5F3F4F77FDC8
:1004B000E7CFC9010BC0440F551F661F771FF7FC1C
:1004C0004160CC0CDD1CEE1CFF1C01974030A0E00D
:1004D0005A07A0E06A07A0E47A0768F38B879C8735
:1004E000DB01CA018F779070A070B07080349105E5
:1004F000A105B10561F447FD0AC0C114D104E104AE
:10050000F10429F0405C5F4F6F4F7F4F40784D877B
:100510005E876F87788B83E08987CE01099602C05A
:1005200082E291E00E94B903462F572F682F792F5E
:10053000CB01BA01A096E0E10C945705CF92DF926F
:10054000EF92FF92CF93DF93CDB7DEB728970FB628
:10055000F894DEBF0FBECDBF6B017C0183E08983C1
:10056000D701C6018827B7FD83959927AA27BB27FE
:10057000282F8A83C114D104E104F10419F482E024
:10058000898335C08EE190E09C838B83222389F0A0
:1005900080E0C81680E0D80680E0E80680E8F8062B
:1005A00059F1F094E094D094C094C11CD11CE11C8A
:1005B000F11CCD82DE82EF82F886C701B6010E946F
:1005C000660301971816190694F4082E04C0CC0C83
:1005D000DD1CEE1CFF1C0A94D2F7CD82DE82EF8276
:1005E000F8862EE130E0281B390B3C832B83CE01AB
:1005F00001960E94B90304C060E070E080E09FECC7
:10060000382F292F862F972FA32FB22FBC01CD0172
:1006100028960FB6F894DEBF0FBECDBFDF91CF9105
:10062000FF90EF90DF90CF900895ACE0B0E0EBE169
:10063000F3E00C944705DC01CB0189839A83AB83FB
:10064000BC83CE010196BE016B5F7F4F0E94900478
:100650008D81823069F1823058F1843039F02F81F8
:10066000388537FD25C02F31310544F08E81882330
:1006700019F100E010E020E030E822C08EE190E0C7
:10068000821B930B09851A852B853C8504C0369502
:100690002795179507958A95D2F78E81882381F043
:1006A00030952095109501951F4F2F4F3F4F08C053
:1006B00000E010E0980104C00FEF1FEF2FEF3FE7BD
:1006C000B801C9012C96E4E00C946305CF92DF9247
:1006D000EF92FF920F931F938B019C01003080E0FB
:1006E000180781E0280780E0380750F40F3F110514
:1006F0002105310509F088F480E090E0DC0116C0A6
:100700000030E0E01E07E0E02E07E1E03E0750F495
:1007100080E190E0A0E0B0E009C088E090E0A0E0D7
:10072000B0E004C088E190E0A0E0B0E040E250E03A
:1007300060E070E0481B590B6A0B7B0B6801790184
:1007400004C0F694E794D794C7948A95D2F7D7015A
:10075000C601865D9E4FFC018081481B51096109DD
:100760007109CA011F910F91FF90EF90DF90CF9018
:100770000895CF92DF92EF92FF920F931F93DC01C7
:1007800014964D915D916D917C9117971196EC9116
:1007900011978C91823020F460618FEF90E0A5C0BA
:1007A000843009F49DC0823009F494C0411551058C
:1007B0006105710509F491C012968D919C91139772
:1007C0002FEF823892070CF059C022E83FEF281B28
:1007D000390B2A31310564F56A017B01022E04C010
:1007E000F694E794D794C7940A94D2F781E090E006
:1007F000A0E0B0E004C0880F991FAA1FBB1F2A9574
:10080000D2F70197A109B10984239523A623B72321
:1008100041E050E060E070E00097A105B10519F4F7
:1008200040E050E0BA014C295D296E297F2903C0C0
:1008300040E050E0BA01DB01CA018F779070A070F0
:10084000B07080349105A105B10539F447FF09C0A6
:10085000405C5F4F6F4F7F4F04C0415C5F4F6F4FF5
:100860007F4F81E090E0403020E0520720E06207B7
:1008700020E4720738F580E090E024C080389105CC
:100880007CF58A019B010F77107020703070003466
:1008900011052105310539F447FF09C0405C5F4F60
:1008A0006F4F7F4F04C0415C5F4F6F4F7F4F77FDAD
:1008B00003C081589F4F06C0769567955795479519
:1008C00080589F4F97E076956795579547959A95ED
:1008D000D1F70BC080E090E005C080E090E005C05B
:1008E0008FEF90E040E050E0BA01982F979599275C
:1008F0009795A62FAF77E795EE27E79586953A2F40
:10090000392B282F2E2B842F952FA32FB22FBC01EC
:10091000CD011F910F91FF90EF90DF90CF90089540
:10092000DC01FB014C9111965C91119712968C9110
:100930001297682F6F7770E0982F991F9927991F4A
:1009400013962C911397822F880F892B90E0221FEA
:100950002227221F2183009739F541155105610592
:10096000710511F482E029C082E89FEF93838283AE
:1009700027E0440F551F661F771F2A95D1F783E0A4
:10098000808309C0440F551F661F771F82819381A2
:10099000019793838283403080E0580780E06807A6
:1009A00080E4780778F320C08F3F910579F44115F2
:1009B00051056105710519F484E08083089564FF91
:1009C00003C081E0808310C010820EC08F5790401A
:1009D0009383828383E0808387E0440F551F661FE3
:1009E000771F8A95D1F77064448355836683778334
:1009F000089581E890E00E9485010E945A000E94BB
:100A0000840030E0E32E31E0F32E0E943401EC014B
:100A10000E94E3008C010E9492002DB73EB728503F
:100A200030400FB6F8943EBF0FBE2DBFEDB7FEB7F6
:100A30003196ADB7BEB71296FC92EE921197D38362
:100A4000C28315830483978386830E9470058FE792
:100A50009AE1A6E081509040A040E1F700C000007C
:100A6000ADB7BEB718960FB6F894BEBF0FBEADBFF8
:100A7000CCCF2F923F924F925F926F927F928F9244
:100A80009F92AF92BF92CF92DF92EF92FF920F931D
:100A90001F93CF93DF93CDB7DEB7CA1BDB0B0FB627
:100AA000F894DEBF0FBECDBF09942A8839884888E4
:100AB0005F846E847D848C849B84AA84B984C8847A
:100AC000DF80EE80FD800C811B81AA81B981CE0F71
:100AD000D11D0FB6F894DEBF0FBECDBFED01089556
:100AE000A0E0B0E0E6E7F5E00C944905FE0135969C
:100AF0006191719180912C0290912D02AF010E9421
:100B000085052096E2E00C946505ADE0B0E0EBE8E9
:100B1000F5E00C9439053C017D876C875A01FC0196
:100B200017821682838181FFC8C12E010894411C5F
:100B3000511CF3019381EC85FD8593FD859193FF15
:100B40008191FD87EC87882309F4B3C1853241F494
:100B500093FD859193FF8191FD87EC87853229F480
:100B600090E0B3010E947907E4CFFF24EE2410E067
:100B70001032B0F48B3269F08C3228F4803251F0AC
:100B8000833271F40BC08D3239F0803349F4116037
:100B90002CC01260146029C0186027C0106125C0E5
:100BA00017FD2EC0282F20532A3098F416FF08C0B6
:100BB0008F2D880FF82EFF0CFF0CF80EF20E15C0CB
:100BC0008E2D880FE82EEE0CEE0CE80EE20E106271
:100BD0000CC08E3221F416FD6CC1106406C08C3638
:100BE00011F4106802C0883659F4EC85FD8593FD38
:100BF000859193FF8191FD87EC87882309F0B8CF19
:100C0000982F9554933018F09052933038F424E094
:100C100030E0A20EB31E3FE339830FC0833631F0BC
:100C2000833781F0833509F05AC022C0F5018081F5
:100C3000898322E030E0A20EB31E21E0C22ED12C27
:100C4000420114C092E0292E312C2A0C3B1CF501E4
:100C50008080918016FF03C06F2D70E002C06FEF9F
:100C60007FEFC4010E946E076C0151011F7715C010
:100C700082E0282E312C2A0C3B1CF50180809180CB
:100C800016FF03C06F2D70E002C06FEF7FEFC4014D
:100C90000E9463076C011068510113FD1CC006C05F
:100CA00080E290E0B3010E947907EA948E2D90E0F3
:100CB000C816D906A8F30FC0F40117FD859117FFD8
:100CC00081914F0190E0B3010E947907E110EA940D
:100CD0000894C108D108C114D10471F7E7C0843663
:100CE00011F0893651F5F50117FF07C08081918118
:100CF000A281B38124E030E008C080819181AA27DD
:100D000097FDA095BA2F22E030E0A20EB31E012F6E
:100D10000F76B7FF08C0B095A095909581959F4F2D
:100D2000AF4FBF4F0068BC01CD01A2012AE030E007
:100D30000E94A507D82ED4183FC0853721F41F7E06
:100D40002AE030E020C0197F8F36A9F0803720F4E8
:100D5000883509F0AEC00BC0803721F0883709F024
:100D6000A8C001C0106114FF09C0146007C014FFBF
:100D700008C0166006C028E030E005C020E130E081
:100D800002C020E132E0F50117FF07C060817181E8
:100D90008281938144E050E006C06081718180E0EF
:100DA00090E042E050E0A40EB51EA2010E94A5070B
:100DB000D82ED418012F0F7706FF09C00E7FDF143D
:100DC00030F404FF06C002FD04C00F7E02C01D2DDA
:100DD00001C01F2D802F90E004FF0CC0FE01ED0D1F
:100DE000F11D2081203311F4097E09C002FF06C0E5
:100DF0001E5F05C086789070009709F01F5F802EF7
:100E0000992403FD12C000FF0DC0FD2C1E1550F4E7
:100E1000FE0CF11A1E2D06C080E290E0B3010E9484
:100E200079071F5F1E15C0F304C01E1510F4E11AE8
:100E300001C0EE2484FE0FC080E390E0B3010E9465
:100E4000790782FE1FC081FE03C088E590E010C0D4
:100E500088E790E00DC0C40186789070009791F00B
:100E600081FC02C080E201C08BE207FD8DE290E0D0
:100E7000B3010E94790706C080E390E0B3010E94AD
:100E80007907FA94DF14C0F3DA94F201ED0DF11D45
:100E9000808190E0B3010E947907DD20A9F706C0A8
:100EA00080E290E0B3010E947907EA94EE20C1F756
:100EB00040CEF3018681978102C08FEF9FEF2D9680
:100EC000E2E10C945505FC01059061507040011061
:100ED000D8F7809590958E0F9F1F0895FC01615063
:100EE000704001900110D8F7809590958E0F9F1F4C
:100EF00008950F931F93CF93DF938C01EB018B81A8
:100F000081FF1BC082FF0DC02E813F818C819D819E
:100F10002817390764F4E881F9810193F983E8839C
:100F200006C0E885F985802F0995009731F48E81F8
:100F30009F8101969F838E8302C00FEF1FEFC80130
:100F4000DF91CF911F910F910895FA01AA272830C0
:100F500051F1203181F1E8946F936E7F6E5F7F4F86
:100F60008F4F9F4FAF4FB1E03ED0B4E03CD0670F02
:100F7000781F891F9A1FA11D680F791F8A1F911D55
:100F8000A11D6A0F711D811D911DA11D20D009F4A5
:100F900068943F912AE0269F11243019305D3193E7
:100FA000DEF6CF010895462F4770405D4193B3E0D0
:100FB0000FD0C9F7F6CF462F4F70405D4A3318F077
:100FC000495D31FD4052419302D0A9F7EACFB4E028
:100FD000A6959795879577956795BA95C9F70097E0
:100FE0006105710508959B01AC010A2E0694579581
:100FF000479537952795BA95C9F7620F731F841FD8
:0A100000951FA01D0895F894FFCF7E
:10100A00583A20256420593A202564205A3A202546
:10101A00640D0A00000000020000000053000000F6
:10102A0000000000000000000000000102020303AB
:10103A000303040404040404040405050505050562
:10104A000505050505050505050506060606060640
:10105A000606060606060606060606060606060626
:10106A000606060606060606060607070707070710
:10107A0007070707070707070707070707070707F6
:10108A0007070707070707070707070707070707E6
:10109A0007070707070707070707070707070707D6
:1010AA0007070707070707070707080808080808C0
:1010BA0008080808080808080808080808080808A6
:1010CA000808080808080808080808080808080896
:1010DA000808080808080808080808080808080886
:1010EA000808080808080808080808080808080876
:1010FA000808080808080808080808080808080866
:10110A000808080808080808080808080808080855
:10111A000808080808080808080808080808080845
:0A112A00080808080808080808086B
:00000001FF
